{
  "contractName": "M8BadgeToken",
  "abi": [
    {
      "constant": true,
      "inputs": [],
      "name": "name",
      "outputs": [
        {
          "name": "",
          "type": "string"
        }
      ],
      "payable": false,
      "stateMutability": "view",
      "type": "function"
    },
    {
      "constant": false,
      "inputs": [
        {
          "name": "_to",
          "type": "address"
        },
        {
          "name": "_tokenId",
          "type": "uint256"
        }
      ],
      "name": "approve",
      "outputs": [],
      "payable": false,
      "stateMutability": "nonpayable",
      "type": "function"
    },
    {
      "constant": true,
      "inputs": [
        {
          "name": "",
          "type": "uint256"
        }
      ],
      "name": "badgeIndexToOwner",
      "outputs": [
        {
          "name": "",
          "type": "address"
        }
      ],
      "payable": false,
      "stateMutability": "view",
      "type": "function"
    },
    {
      "constant": true,
      "inputs": [],
      "name": "totalSupply",
      "outputs": [
        {
          "name": "",
          "type": "uint256"
        }
      ],
      "payable": false,
      "stateMutability": "view",
      "type": "function"
    },
    {
      "constant": false,
      "inputs": [
        {
          "name": "_from",
          "type": "address"
        },
        {
          "name": "_to",
          "type": "address"
        },
        {
          "name": "_tokenId",
          "type": "uint256"
        }
      ],
      "name": "transferFrom",
      "outputs": [],
      "payable": false,
      "stateMutability": "nonpayable",
      "type": "function"
    },
    {
      "constant": true,
      "inputs": [
        {
          "name": "",
          "type": "uint256"
        }
      ],
      "name": "badgeIndexToApproved",
      "outputs": [
        {
          "name": "",
          "type": "address"
        }
      ],
      "payable": false,
      "stateMutability": "view",
      "type": "function"
    },
    {
      "constant": true,
      "inputs": [
        {
          "name": "_tokenId",
          "type": "uint256"
        }
      ],
      "name": "ownerOf",
      "outputs": [
        {
          "name": "owner",
          "type": "address"
        }
      ],
      "payable": false,
      "stateMutability": "view",
      "type": "function"
    },
    {
      "constant": true,
      "inputs": [
        {
          "name": "_owner",
          "type": "address"
        }
      ],
      "name": "balanceOf",
      "outputs": [
        {
          "name": "count",
          "type": "uint256"
        }
      ],
      "payable": false,
      "stateMutability": "view",
      "type": "function"
    },
    {
      "constant": true,
      "inputs": [
        {
          "name": "_owner",
          "type": "address"
        }
      ],
      "name": "tokensOfOwner",
      "outputs": [
        {
          "name": "ownerTokens",
          "type": "uint256[]"
        }
      ],
      "payable": false,
      "stateMutability": "view",
      "type": "function"
    },
    {
      "constant": true,
      "inputs": [],
      "name": "owner",
      "outputs": [
        {
          "name": "",
          "type": "address"
        }
      ],
      "payable": false,
      "stateMutability": "view",
      "type": "function"
    },
    {
      "constant": true,
      "inputs": [],
      "name": "symbol",
      "outputs": [
        {
          "name": "",
          "type": "string"
        }
      ],
      "payable": false,
      "stateMutability": "view",
      "type": "function"
    },
    {
      "constant": false,
      "inputs": [
        {
          "name": "_to",
          "type": "address"
        },
        {
          "name": "_tokenId",
          "type": "uint256"
        }
      ],
      "name": "transfer",
      "outputs": [],
      "payable": false,
      "stateMutability": "nonpayable",
      "type": "function"
    },
    {
      "constant": false,
      "inputs": [
        {
          "name": "newOwner",
          "type": "address"
        }
      ],
      "name": "transferOwnership",
      "outputs": [],
      "payable": false,
      "stateMutability": "nonpayable",
      "type": "function"
    },
    {
      "inputs": [],
      "payable": false,
      "stateMutability": "nonpayable",
      "type": "constructor"
    },
    {
      "anonymous": false,
      "inputs": [
        {
          "indexed": true,
          "name": "previousOwner",
          "type": "address"
        },
        {
          "indexed": true,
          "name": "newOwner",
          "type": "address"
        }
      ],
      "name": "OwnershipTransferred",
      "type": "event"
    },
    {
      "anonymous": false,
      "inputs": [
        {
          "indexed": false,
          "name": "from",
          "type": "address"
        },
        {
          "indexed": false,
          "name": "to",
          "type": "address"
        },
        {
          "indexed": false,
          "name": "tokenId",
          "type": "uint256"
        }
      ],
      "name": "Transfer",
      "type": "event"
    },
    {
      "anonymous": false,
      "inputs": [
        {
          "indexed": false,
          "name": "owner",
          "type": "address"
        },
        {
          "indexed": false,
          "name": "approved",
          "type": "address"
        },
        {
          "indexed": false,
          "name": "tokenId",
          "type": "uint256"
        }
      ],
      "name": "Approval",
      "type": "event"
    },
    {
      "anonymous": false,
      "inputs": [
        {
          "indexed": false,
          "name": "owner",
          "type": "address"
        },
        {
          "indexed": false,
          "name": "badgeId",
          "type": "uint256"
        }
      ],
      "name": "Creation",
      "type": "event"
    },
    {
      "constant": false,
      "inputs": [
        {
          "name": "_txHash",
          "type": "uint256"
        },
        {
          "name": "_challengeId",
          "type": "string"
        },
        {
          "name": "forUser",
          "type": "address"
        }
      ],
      "name": "create",
      "outputs": [],
      "payable": false,
      "stateMutability": "nonpayable",
      "type": "function"
    },
    {
      "constant": true,
      "inputs": [
        {
          "name": "_challengeId",
          "type": "string"
        }
      ],
      "name": "claimedChallengeTransactions",
      "outputs": [
        {
          "name": "txHashes",
          "type": "uint256[]"
        }
      ],
      "payable": false,
      "stateMutability": "view",
      "type": "function"
    },
    {
      "constant": true,
      "inputs": [
        {
          "name": "_tokenId",
          "type": "uint256"
        }
      ],
      "name": "getBadge",
      "outputs": [
        {
          "name": "challenge",
          "type": "string"
        },
        {
          "name": "face",
          "type": "uint256"
        },
        {
          "name": "mask",
          "type": "uint256"
        },
        {
          "name": "color",
          "type": "uint256"
        },
        {
          "name": "txHash",
          "type": "uint256"
        }
      ],
      "payable": false,
      "stateMutability": "view",
      "type": "function"
    }
  ],
  "bytecode": "0x606060405234156200001057600080fd5b33600460006101000a81548173ffffffffffffffffffffffffffffffffffffffff021916908373ffffffffffffffffffffffffffffffffffffffff160217905550620000a860006040805190810160405280600b81526020017f4368616c6c656e6765203000000000000000000000000000000000000000000081525033620000ae64010000000002620008c4176401000000009004565b620007fc565b600460009054906101000a900473ffffffffffffffffffffffffffffffffffffffff1673ffffffffffffffffffffffffffffffffffffffff163373ffffffffffffffffffffffffffffffffffffffff161415156200010b57600080fd5b6005600084815260200190815260200160002060009054906101000a900460ff161515156200013957600080fd5b60016005600085815260200190815260200160002060006101000a81548160ff0219169083151502179055506006826040518082805190602001908083835b6020831015156200019f578051825260208201915060208101905060208303925062000178565b6001836020036101000a03801982511681845116808217855250505050505090500191505090815260200160405180910390208054806001018281620001e69190620005fd565b9160005260206000209001600085909190915055506200021c8383836200022264010000000002620011f3176401000000009004565b50505050565b60006200022e6200062c565b600060a060405190810160405280878152602001868152602001600842604051808281526020019150506040518091039020600190048115156200026e57fe5b068152602001600460014201604051808281526020019150506040518091039020600190048115156200029d57fe5b06815260200160146002420160405180828152602001915050604051809103902060019004811515620002cc57fe5b068152509150600160008054806001018281620002ea919062000664565b916000526020600020906005020160008590919091506000820151816000015560208201518160010190805190602001906200032892919062000699565b5060408201518160020155606082015181600301556080820151816004015550500390508063ffffffff16811415156200036157600080fd5b7fc07d6fc5db170f8be7da51bea7bf502fb674192c618536ee210555994694b0b78482604051808373ffffffffffffffffffffffffffffffffffffffff1673ffffffffffffffffffffffffffffffffffffffff1681526020018281526020019250505060405180910390a1620003ee60008583620003fa6401000000000262001417176401000000009004565b80925050509392505050565b600260008373ffffffffffffffffffffffffffffffffffffffff1673ffffffffffffffffffffffffffffffffffffffff16815260200190815260200160002060008154809291906001019190505550816001600083815260200190815260200160002060006101000a81548173ffffffffffffffffffffffffffffffffffffffff021916908373ffffffffffffffffffffffffffffffffffffffff160217905550600073ffffffffffffffffffffffffffffffffffffffff168373ffffffffffffffffffffffffffffffffffffffff161415156200055957600260008473ffffffffffffffffffffffffffffffffffffffff1673ffffffffffffffffffffffffffffffffffffffff16815260200190815260200160002060008154809291906001900391905055506003600082815260200190815260200160002060006101000a81549073ffffffffffffffffffffffffffffffffffffffff02191690555b7fddf252ad1be2c89b69c2b068fc378daa952ba7f163c4a11628f55a4df523b3ef838383604051808473ffffffffffffffffffffffffffffffffffffffff1673ffffffffffffffffffffffffffffffffffffffff1681526020018373ffffffffffffffffffffffffffffffffffffffff1673ffffffffffffffffffffffffffffffffffffffff168152602001828152602001935050505060405180910390a1505050565b815481835581811511620006275781836000526020600020918201910162000626919062000720565b5b505050565b60a060405190810160405280600081526020016200064962000748565b81526020016000815260200160008152602001600081525090565b81548183558181151162000694576005028160050283600052602060002091820191016200069391906200075c565b5b505050565b828054600181600116156101000203166002900490600052602060002090601f016020900481019282601f10620006dc57805160ff19168380011785556200070d565b828001600101855582156200070d579182015b828111156200070c578251825591602001919060010190620006ef565b5b5090506200071c919062000720565b5090565b6200074591905b808211156200074157600081600090555060010162000727565b5090565b90565b602060405190810160405280600081525090565b620007ad91905b80821115620007a957600080820160009055600182016000620007879190620007b0565b6002820160009055600382016000905560048201600090555060050162000763565b5090565b90565b50805460018160011615610100020316600290046000825580601f10620007d85750620007f9565b601f016020900490600052602060002090810190620007f8919062000720565b5b50565b611851806200080c6000396000f3006060604052600436106100e6576000357c0100000000000000000000000000000000000000000000000000000000900463ffffffff16806306fdde03146100eb578063095ea7b3146101795780630c83f54c146101bb5780630d058fe31461021e57806318160ddd146102a357806323b872dd146102cc57806332ff72791461032d5780636352211e1461039057806370a08231146103f35780638462151c146104405780638d73d781146104ce5780638d838622146105805780638da5cb5b1461063857806395d89b411461068d578063a9059cbb1461071b578063f2fde38b1461075d575b600080fd5b34156100f657600080fd5b6100fe610796565b6040518080602001828103825283818151815260200191508051906020019080838360005b8381101561013e578082015181840152602081019050610123565b50505050905090810190601f16801561016b5780820380516001836020036101000a031916815260200191505b509250505060405180910390f35b341561018457600080fd5b6101b9600480803573ffffffffffffffffffffffffffffffffffffffff169060200190919080359060200190919050506107cf565b005b34156101c657600080fd5b6101dc6004808035906020019091905050610891565b604051808273ffffffffffffffffffffffffffffffffffffffff1673ffffffffffffffffffffffffffffffffffffffff16815260200191505060405180910390f35b341561022957600080fd5b6102a1600480803590602001909190803590602001908201803590602001908080601f0160208091040260200160405190810160405280939291908181526020018383808284378201915050505050509190803573ffffffffffffffffffffffffffffffffffffffff169060200190919050506108c4565b005b34156102ae57600080fd5b6102b6610a1c565b6040518082815260200191505060405180910390f35b34156102d757600080fd5b61032b600480803573ffffffffffffffffffffffffffffffffffffffff1690602001909190803573ffffffffffffffffffffffffffffffffffffffff16906020019091908035906020019091905050610a2c565b005b341561033857600080fd5b61034e6004808035906020019091905050610add565b604051808273ffffffffffffffffffffffffffffffffffffffff1673ffffffffffffffffffffffffffffffffffffffff16815260200191505060405180910390f35b341561039b57600080fd5b6103b16004808035906020019091905050610b10565b604051808273ffffffffffffffffffffffffffffffffffffffff1673ffffffffffffffffffffffffffffffffffffffff16815260200191505060405180910390f35b34156103fe57600080fd5b61042a600480803573ffffffffffffffffffffffffffffffffffffffff16906020019091905050610b89565b6040518082815260200191505060405180910390f35b341561044b57600080fd5b610477600480803573ffffffffffffffffffffffffffffffffffffffff16906020019091905050610bd2565b6040518080602001828103825283818151815260200191508051906020019060200280838360005b838110156104ba57808201518184015260208101905061049f565b505050509050019250505060405180910390f35b34156104d957600080fd5b610529600480803590602001908201803590602001908080601f01602080910402602001604051908101604052809392919081815260200183838082843782019150505050505091905050610d09565b6040518080602001828103825283818151815260200191508051906020019060200280838360005b8381101561056c578082015181840152602081019050610551565b505050509050019250505060405180910390f35b341561058b57600080fd5b6105a16004808035906020019091905050610dd8565b6040518080602001868152602001858152602001848152602001838152602001828103825287818151815260200191508051906020019080838360005b838110156105f95780820151818401526020810190506105de565b50505050905090810190601f1680156106265780820380516001836020036101000a031916815260200191505b50965050505050505060405180910390f35b341561064357600080fd5b61064b610edf565b604051808273ffffffffffffffffffffffffffffffffffffffff1673ffffffffffffffffffffffffffffffffffffffff16815260200191505060405180910390f35b341561069857600080fd5b6106a0610f05565b6040518080602001828103825283818151815260200191508051906020019080838360005b838110156106e05780820151818401526020810190506106c5565b50505050905090810190601f16801561070d5780820380516001836020036101000a031916815260200191505b509250505060405180910390f35b341561072657600080fd5b61075b600480803573ffffffffffffffffffffffffffffffffffffffff16906020019091908035906020019091905050610f3e565b005b341561076857600080fd5b610794600480803573ffffffffffffffffffffffffffffffffffffffff16906020019091905050610fd9565b005b6040805190810160405280600c81526020017f4d6f74697638204261646765000000000000000000000000000000000000000081525081565b6107d93382611131565b15156107e457600080fd5b6107ee818361119d565b7f8c5be1e5ebec7d5bd14f71427d1e84f3dd0314c0f7b2291e5b200ac8c7c3b925338383604051808473ffffffffffffffffffffffffffffffffffffffff1673ffffffffffffffffffffffffffffffffffffffff1681526020018373ffffffffffffffffffffffffffffffffffffffff1673ffffffffffffffffffffffffffffffffffffffff168152602001828152602001935050505060405180910390a15050565b60016020528060005260406000206000915054906101000a900473ffffffffffffffffffffffffffffffffffffffff1681565b600460009054906101000a900473ffffffffffffffffffffffffffffffffffffffff1673ffffffffffffffffffffffffffffffffffffffff163373ffffffffffffffffffffffffffffffffffffffff1614151561092057600080fd5b6005600084815260200190815260200160002060009054906101000a900460ff1615151561094d57600080fd5b60016005600085815260200190815260200160002060006101000a81548160ff0219169083151502179055506006826040518082805190602001908083835b6020831015156109b1578051825260208201915060208101905060208303925061098c565b6001836020036101000a038019825116818451168082178552505050505050905001915050908152602001604051809103902080548060010182816109f69190611619565b916000526020600020900160008590919091505550610a168383836111f3565b50505050565b6000600160008054905003905090565b600073ffffffffffffffffffffffffffffffffffffffff168273ffffffffffffffffffffffffffffffffffffffff1614151515610a6857600080fd5b3073ffffffffffffffffffffffffffffffffffffffff168273ffffffffffffffffffffffffffffffffffffffff1614151515610aa357600080fd5b610aad33826113ab565b1515610ab857600080fd5b610ac28382611131565b1515610acd57600080fd5b610ad8838383611417565b505050565b60036020528060005260406000206000915054906101000a900473ffffffffffffffffffffffffffffffffffffffff1681565b60006001600083815260200190815260200160002060009054906101000a900473ffffffffffffffffffffffffffffffffffffffff169050600073ffffffffffffffffffffffffffffffffffffffff168173ffffffffffffffffffffffffffffffffffffffff1614151515610b8457600080fd5b919050565b6000600260008373ffffffffffffffffffffffffffffffffffffffff1673ffffffffffffffffffffffffffffffffffffffff168152602001908152602001600020549050919050565b610bda611645565b6000610be4611645565b6000806000610bf287610b89565b94506000851415610c24576000604051805910610c0c5750595b90808252806020026020018201604052509550610cff565b84604051805910610c325750595b90808252806020026020018201604052509350610c4d610a1c565b925060009150600190505b8281111515610cfb578673ffffffffffffffffffffffffffffffffffffffff166001600083815260200190815260200160002060009054906101000a900473ffffffffffffffffffffffffffffffffffffffff1673ffffffffffffffffffffffffffffffffffffffff161415610cee57808483815181101515610cd757fe5b906020019060200201818152505081806001019250505b8080600101915050610c58565b8395505b5050505050919050565b610d11611645565b60006006836040518082805190602001908083835b602083101515610d4b5780518252602082019150602081019050602083039250610d26565b6001836020036101000a0380198251168184511680821785525050505050509050019150509081526020016040518091039020905080805480602002602001604051908101604052809291908181526020018280548015610dcb57602002820191906000526020600020905b815481526020019060010190808311610db7575b5050505050915050919050565b610de0611659565b600080600080600086600080549050111515610dfb57600080fd5b600087815481101515610e0a57fe5b90600052602060002090600502019050806001018054600181600116156101000203166002900480601f016020809104026020016040519081016040528092919081815260200182805460018160011615610100020316600290048015610eb25780601f10610e8757610100808354040283529160200191610eb2565b820191906000526020600020905b815481529060010190602001808311610e9557829003601f168201915b50505050509550806002015494508060030154935080600401549250806000015491505091939590929450565b600460009054906101000a900473ffffffffffffffffffffffffffffffffffffffff1681565b6040805190810160405280600781526020017f4d3842616467650000000000000000000000000000000000000000000000000081525081565b600073ffffffffffffffffffffffffffffffffffffffff168273ffffffffffffffffffffffffffffffffffffffff1614151515610f7a57600080fd5b3073ffffffffffffffffffffffffffffffffffffffff168273ffffffffffffffffffffffffffffffffffffffff1614151515610fb557600080fd5b610fbf3382611131565b1515610fca57600080fd5b610fd5338383611417565b5050565b600460009054906101000a900473ffffffffffffffffffffffffffffffffffffffff1673ffffffffffffffffffffffffffffffffffffffff163373ffffffffffffffffffffffffffffffffffffffff1614151561103557600080fd5b600073ffffffffffffffffffffffffffffffffffffffff168173ffffffffffffffffffffffffffffffffffffffff161415151561107157600080fd5b8073ffffffffffffffffffffffffffffffffffffffff16600460009054906101000a900473ffffffffffffffffffffffffffffffffffffffff1673ffffffffffffffffffffffffffffffffffffffff167f8be0079c531659141344cd1fd0a4f28419497f9722a3daafe3b4186f6b6457e060405160405180910390a380600460006101000a81548173ffffffffffffffffffffffffffffffffffffffff021916908373ffffffffffffffffffffffffffffffffffffffff16021790555050565b60008273ffffffffffffffffffffffffffffffffffffffff166001600084815260200190815260200160002060009054906101000a900473ffffffffffffffffffffffffffffffffffffffff1673ffffffffffffffffffffffffffffffffffffffff1614905092915050565b806003600084815260200190815260200160002060006101000a81548173ffffffffffffffffffffffffffffffffffffffff021916908373ffffffffffffffffffffffffffffffffffffffff1602179055505050565b60006111fd61166d565b600060a0604051908101604052808781526020018681526020016008426040518082815260200191505060405180910390206001900481151561123c57fe5b0681526020016004600142016040518082815260200191505060405180910390206001900481151561126a57fe5b0681526020016014600242016040518082815260200191505060405180910390206001900481151561129857fe5b0681525091506001600080548060010182816112b491906116a3565b916000526020600020906005020160008590919091506000820151816000015560208201518160010190805190602001906112f09291906116d5565b5060408201518160020155606082015181600301556080820151816004015550500390508063ffffffff168114151561132857600080fd5b7fc07d6fc5db170f8be7da51bea7bf502fb674192c618536ee210555994694b0b78482604051808373ffffffffffffffffffffffffffffffffffffffff1673ffffffffffffffffffffffffffffffffffffffff1681526020018281526020019250505060405180910390a161139f60008583611417565b80925050509392505050565b60008273ffffffffffffffffffffffffffffffffffffffff166001600084815260200190815260200160002060009054906101000a900473ffffffffffffffffffffffffffffffffffffffff1673ffffffffffffffffffffffffffffffffffffffff1614905092915050565b600260008373ffffffffffffffffffffffffffffffffffffffff1673ffffffffffffffffffffffffffffffffffffffff16815260200190815260200160002060008154809291906001019190505550816001600083815260200190815260200160002060006101000a81548173ffffffffffffffffffffffffffffffffffffffff021916908373ffffffffffffffffffffffffffffffffffffffff160217905550600073ffffffffffffffffffffffffffffffffffffffff168373ffffffffffffffffffffffffffffffffffffffff1614151561157557600260008473ffffffffffffffffffffffffffffffffffffffff1673ffffffffffffffffffffffffffffffffffffffff16815260200190815260200160002060008154809291906001900391905055506003600082815260200190815260200160002060006101000a81549073ffffffffffffffffffffffffffffffffffffffff02191690555b7fddf252ad1be2c89b69c2b068fc378daa952ba7f163c4a11628f55a4df523b3ef838383604051808473ffffffffffffffffffffffffffffffffffffffff1673ffffffffffffffffffffffffffffffffffffffff1681526020018373ffffffffffffffffffffffffffffffffffffffff1673ffffffffffffffffffffffffffffffffffffffff168152602001828152602001935050505060405180910390a1505050565b8154818355818115116116405781836000526020600020918201910161163f9190611755565b5b505050565b602060405190810160405280600081525090565b602060405190810160405280600081525090565b60a0604051908101604052806000815260200161168861177a565b81526020016000815260200160008152602001600081525090565b8154818355818115116116d0576005028160050283600052602060002091820191016116cf919061178e565b5b505050565b828054600181600116156101000203166002900490600052602060002090601f016020900481019282601f1061171657805160ff1916838001178555611744565b82800160010185558215611744579182015b82811115611743578251825591602001919060010190611728565b5b5090506117519190611755565b5090565b61177791905b8082111561177357600081600090555060010161175b565b5090565b90565b602060405190810160405280600081525090565b6117da91905b808211156117d6576000808201600090556001820160006117b591906117dd565b60028201600090556003820160009055600482016000905550600501611794565b5090565b90565b50805460018160011615610100020316600290046000825580601f106118035750611822565b601f0160209004906000526020600020908101906118219190611755565b5b505600a165627a7a72305820997ae895981d30f361531a10766568d294fde40af15bb94b6445fb25483764090029",
  "source": "pragma solidity ^0.4.17;\n\nimport \"./M8BadgeOwnership.sol\";\nimport \"zeppelin-solidity/contracts/ownership/Ownable.sol\";\n\ncontract M8BadgeToken is M8BadgeOwnership, Ownable {\n\n    mapping(uint=>bool) claimedTransactions;\n    mapping(string=>uint[]) challengeTransactions;\n\n    function M8BadgeToken() public {\n        create(0, \"Challenge 0\", msg.sender);\n    }\n\n    function create(uint _txHash, string _challengeId, address forUser) onlyOwner public {\n        require(!claimedTransactions[_txHash]);\n        //@dev TODO: implement merkle proof protection\n        claimedTransactions[_txHash] = true;\n        challengeTransactions[_challengeId].push(_txHash);\n        _createBadge(_txHash, _challengeId, forUser);\n    }\n\n    function claimedChallengeTransactions(string _challengeId) public view returns (uint[] txHashes) {\n        uint[] storage txs = challengeTransactions[_challengeId];\n        txHashes = txs;\n    }\n\n    /// @dev returns badge information\n    function getBadge(uint256 _tokenId) public view returns (string challenge, uint face, uint mask, uint color, uint txHash) {\n        require(badges.length > _tokenId);\n        M8Badge storage badge = badges[_tokenId];\n        challenge = string(badge.challenge);\n        face = uint(badge.face);\n        mask = uint(badge.mask);\n        color = uint(badge.color);\n        txHash = uint(badge.txHash);\n    }\n\n}",
  "sourcePath": "/Users/bomalkevych/Documents/blockchain/motiv8/contracts/M8BadgeToken.sol",
  "compiler": {
    "name": "solc",
    "version": "0.4.19+commit.c4cbbb05.Emscripten.clang"
  },
  "schemaVersion": "1.0.1",
  "updatedAt": "2018-02-12T14:52:23.757Z"
}